:020000040800F2
:10000000F8FF042029010208F7B20908E5B209083F
:10001000F9B2090805B3090811B309080000000086
:100020000000000000000000000000001DB30908EF
:100030001FB309080000000091C40908EDC40908B5
:100040000100020809B409081BB4090821B4090811
:1000500005420A08010002089DB30908A3B3090874
:10006000A9B30908AFB30908B5B30908E9E9090854
:10007000F9E9090809EA090819EA090829EA090851
:1000800039EA090849EA09080100020801000208E2
:100090002D0C0A08350C0A083D0C0A08BBB30908E8
:1000A00035B409083BB409084DB4090853B409082C
:1000B00059B409085FB4090865B40908E5B409082A
:1000C000EBB409080100020801000208010002085F
:1000D00001000208B5B40908BBB40908C1B4090895
:1000E000DFB309080FB409082DB3090891B4090852
:1000F00097B40908AFB40908A9B4090859EA09086E
:1001000001000208C54B0A086DB409080100020885
:10011000C7B40908CDB4090885B409088BB4090827
:1001200069EA090879EA090889EA090899EA0908DF
:10013000A9EA09080100020815B40908010002082B
:10014000430C0A084B0C0A08530C0A0821B309088F
:10015000B9EA0908C9EA0908D9EA0908D3B40908BB
:10016000F1B40908F7B40908010002080100020807
:10017000010002080100020801000208000000005E
:100180000100020801000208D9B40908DFB4090817
:100190000100020801000208010002080100020833
:1001A00009B5090801000208FDB4090801000208A8
:1001B0000100020801000208010002080100020813
:1001C000010002080100020842884378007843EAEF
:1001D000022340EA032070470B0A017043700B0CA6
:1001E000090E8370C1707047036A0239023B8B426B
:1001F00083BFC389406B01FB03000020704700F1FF
:100200000B010022D30143EA520310F8012B52FAEA
:1002100083F38842DAB2F5D11046704737B50D4600
:10022000044620B9092000232B6003B030BD0368C9
:10023000002BF7D05A79002AF4D081885A8991424C
:10024000F0D118680DF10702062102F0EFFA9DF8CF
:10025000073003F00103034313F0FF00E2D12368EA
:10026000E2E738B50568044615F8010B20B140F205
:10027000B51150F097FE08B1256038BD4FF0FF3042
:10028000FBE70328CA7E8B7E08BF487D43EA022332
:1002900002BF0A7D42EA002243EA02431846704741
:1002A000C2F307238A76CB760378032B01BF120CA7
:1002B0000A75120A4A75704737B5C37904461BB9E7
:1002C0000025284603B030BD00F13C01826B0123BC
:1002D0000068019102F095FA054680B9E36AE07181
:1002E000A06B626AC31A9342EAD2A3790199022BE6
:1002F000E6D102440123206802F083FAE1E70125F8
:10030000DFE738B5836B05460C468B4210D0FFF70C
:10031000D3FF60B92246012305F13C01286802F0B1
:1003200061FA00281CBF4FF0FF340120AC6338BDD8
:100330000020FCE738B500230546C3714FF0FF33BA
:100340008363FFF7DEFF044618BB95F83B2295F860
:100350003A3243EA02234AF6552293421BD195F8DA
:100360003C30EB2B03D01833DBB2012B15D8032222
:100370000B4905F172008FF0A9F940B10522094936
:1003800005F18E008FF0A2F9002818BF0224204644
:1003900038BD0424FBE70324F9E70224F7E700BF94
:1003A000383D0D083C3D0D082DE9F047437986B0F6
:1003B000044601F0FE0593B10DF107020621006825
:1003C00002F034FA9DF80730DA0708D41DB113F0B3
:1003D000040500D00A25284606B0BDE8F0870023B2
:1003E0000DF1070205212068637102F01FFA9DF8E4
:1003F000073013F0010840F014810DB15B07E9D418
:1004000000212046FFF796FF022803D0012823D8B9
:10041000277987B302AD04F2022104F242272E4667
:1004200011F8040C10B10846FFF7CEFE103145F864
:10043000040B8F42F4D1257905B1013D56F82570A2
:100440007FB139462046FFF775FF23795BB9012854
:1004500011D90135032DF1D9042808D14FF0010835
:1004600007E00320F1E70428F8D0012803D94FF072
:100470000D084546AFE794F8482094F8473043EA22
:100480000223B3F5007FF2D194F8530094F8526040
:1004900056EA002604D104F16000FFF795FE0646F7
:1004A00094F84C5066626B1EA571012BDFD894F84E
:1004B00049904B46A4F80E90002BD8D009F1FF3399
:1004C00013EA090FD3D194F84E3094F84DA04AEABC
:1004D000032A1AF00F0F0FFA8AF1A4F80CA0C6D164
:1004E00094F8503094F84F0050EA032003D104F1FF
:1004F0005C00FFF769FE94F84BE094F84A3053EA49
:100500000E2EB4D006FB05FC0EEB1A12624482429A
:10051000ADD8801A4845B0FBF9F5A8D3464B9D42AB
:10052000A5D84FF6F5739D427DD94FF003090235EA
:100530000EEB07033A44B9F1030F2562A762E362A9
:1005400062635CD194F8672094F8663043EA022332
:100550000B431BB2002B8AD1AD0004F16800FFF7FA
:1005600033FE206305F2FF15B6EB552FFFF47FAF86
:100570004FF0FF33B9F1030FC4E905334FF08003A7
:1005800023722FD194F86D2094F86C3043EA022343
:10059000012B27D1791C2046FFF7B3FE10BB94F83E
:1005A0003B2294F83A32207243EA02234AF655225B
:1005B000934217D104F13C00FFF706FE1F4B98420F
:1005C00010D104F50870FFF7FFFD1D4B984209D1CB
:1005D00004F50970FFF7F8FDA06104F50A70FFF754
:1005E000F3FD6061174A84F80590138801339BB2CC
:1005F00013806381144B23610023E36139E7BAF16F
:10060000000F3FF434AF6344B9F1020F23634FEAA4
:1006100045031BBF5B1905F001051D4605EB53059E
:10062000A0E70325D7E640F6F5794D458CBF4FF09E
:1006300002094FF001097AE7F5FFFF0F52526141BD
:10064000727241617A1001207C10012001292DE98C
:10065000F04706460C46174674D9036A8B4271D997
:100660004379022B40D0032B51D0012B6AD101EBEF
:100670005108C16A01EB5821FFF743FE054640BB14
:1006800014F0010406F13C0908F1010AC8F3080856
:1006900008BFFBB230461FBF19F8083003F00F0245
:1006A0003B0103F0F00318BF134309F8083001239E
:1006B000F16AF37101EB5A21FFF723FE054640B9B9
:1006C000CAF3080A44B1C7F3071709F80A700123EF
:1006D000F3712846BDE8F08719F80A30C7F30327FD
:1006E00023F00F031F43F0E7C16A01EB1421FFF76A
:1006F00008FE05460028ECD1640006F13C0304F432
:10070000FF741F551819C7F307274770DFE7C16A41
:1007100001EBD411FFF7F5FD05460028D9D1A4005F
:1007200006F13C0327F0704704F4FE741C44204695
:10073000FFF74AFD00F0704047EA00012046FFF74E
:100740004BFDC4E70225C4E70129F8B505460C4670
:1007500052D9036A99424FD24379022B29D0032BF5
:1007600038D0012B48D101EB5106C16A01EB56216B
:10077000FFF7C7FD10B14FF0FF30F8BD771CC6F38F
:100780000806E96A28462E4401EB572196F83C609A
:10079000FFF7B7FD0028EED1C7F30807E3073D4494
:1007A00095F83C0046EA00204CBF0009C0F30B005E
:1007B000E3E7C16A01EB1421FFF7A3FD0028DAD1BA
:1007C00064003C3504F4FF742B19285D5B7840EA23
:1007D0000320D2E7C16A01EBD411FFF792FD002894
:1007E000C9D1A40005F13C0004F4FE742044FFF7D5
:1007F000EBFC20F07040C0E70120BEE7B1F5001F20
:10080000F8B506460C4601D30220F8BDCA06FBD156
:10081000826805680161CAB96B79022B01D92B6B1B
:100820009BB9AB89B3EB541FEED92B6BB361B369A2
:100830007261002BE8D003EB54233C35C4F3080469
:100840000020B3612C44F461DFE71A46EF897F0290
:10085000BC42114604D22846FFF7C6FCB061E6E769
:100860003068FFF771FF431C024606D00128CBD940
:100870002B6A8342C8D9E41BEAE70120C5E72DE9CA
:10088000F041804605680F4649B96E69C6B12B6ACA
:10089000B34298BF0126AB69A3B9002406E02846FD
:1008A000FFF752FF0128044603D801242046BDE883
:1008B000F081421C51D02B6A8342F7D83E46EAE7CA
:1008C0000126E8E7BE4215D12B6A741CD8F8000057
:1008D000A34298BF02242146FFF736FF0128E4D047
:1008E000431C3AD0D8B16B69012B03D92A6A9342D1
:1008F00038BF1E46344601342B6AA34202D8012E6B
:10090000CBD902242146D8F80000FFF71DFF40B1E3
:100910000128CAD0013020D0B442ECD1BDE7002C70
:10092000E8D04FF0FF3221462846FFF78FFE90B9FE
:1009300057B92A6AAB69023A6C61934210D92B7A93
:1009400043F001032B72B1E7224639462846FFF7F0
:100950007DFE0028EDD00128A7D14FF0FF34A5E798
:10096000013BAB61EBE773B50C46064611460568E3
:10097000012C2CD92B6AA34229D92AB14FF0FF327E
:100980002846FFF763FE40B9214630680194FFF71F
:10099000DBFE0199044610B9002002B070BD0128A9
:1009A00015D0431C15D000222846FFF74FFE002823
:1009B000F3D12A6AAB69911E8B4205D20133AB6138
:1009C0002B7A43F001032B72A242DDD8E4E7022028
:1009D000E3E70120E1E7F7B505460191FFF76CFC7D
:1009E000044600BB05F13C0701992846FFF7FCFBD4
:1009F0004FF400720646A863214638468EF050FE3A
:100A0000EB899C4205D3E889001B18BF012003B085
:100A1000F0BD012332193946286801F0F2FE0028A2
:100A2000F1D10134ECE70120F1E72DE9F843076942
:100A30000446894606682037B7F5001F24BF002307
:100A40008361836973B1C7F30808B8F1000F39D126
:100A500001334169836139B9B389B3EB571F31D889
:100A60000023A36104200BE0F389013B13EA572321
:100A700028D13046FFF768FE0128054602D802203B
:100A8000BDE8F883421C01D10120F9E7336A8342B3
:100A900012D8B9F1000FE3D061692046FFF7EFFEED
:100AA0000546A8B10128EAD0431CEDD001463046E6
:100AB000FFF791FF0028E7D1294630466561FFF72F
:100AC00093FBA0613C36002027614644E661D7E7EE
:100AD0000720D5E7F8B50E46002104460768FFF762
:100AE0008DFEA8B90546A1693846FFF70AFC78B91A
:100AF000E3691B78E52B00D01BB90135B54201D164
:100B0000F8BD054601212046FFF78FFF0028EAD0F7
:100B1000042808BF0720F3E72DE9F84FFF27064612
:100B20008846D0F800903D4604244FF6FF7AB1691C
:100B300011B9002C73D063E04846FFF7E2FB04468E
:100B400000285DD1F0690378002B70D0C27AE52BC4
:100B500002F03F02B27158D02E2B56D022F0200165
:100B6000A1F1080CDCF1000141EB0C0141454CD135
:100B70000F2A4FD15C0646D5326903F0BF03477B8D
:100B8000F262427BBA4240D1C17E827E42EA0122B9
:100B900011B2002A39D102780D24D9F810504FF043
:100BA000010C22F04002DFF88CE0013A62431EF8AB
:100BB000014B00EB040B045D9BF801B044EA0B24ED
:100BC000BCF1000F23D0FF2A1FD825F81240A446FD
:100BD000013201310D29EAD10178490607D5BCF16E
:100BE000000F04D0FF2A10D8002125F812105D1E36
:100BF000EDB200213046FFF718FF0446002896D0DA
:100C00000023B3610CE09D42BBD0FF25F1E75445C2
:100C1000DFD0FAE73DB9FFF7F2FAB84203D100247A
:100C20002046BDE8F88F4FF0FF33F362F8E7042465
:100C3000E6E700BF063E0D08C16A4B1C2DE9F041F6
:100C400004460568066918D1E5274FF00108A16937
:100C50002846FFF756FB60B9E3691F7085F80780E7
:100C60002369B3420DD201462046FFF7DEFE00287D
:100C7000EDD0042808BF022003E0FFF7BFFD0028E5
:100C8000E2D0BDE8F08100002DE9F04F002185B0F1
:100C90000446D0F800A0FFF7B1FD0746002840F059
:100CA00092804FF0FF094FF0FF33C846E362009394
:100CB000A1695046FFF725FB0746002840F08380D6
:100CC000E5692E78002E00F08280EA7AE52E02F0A7
:100CD0003F03A37103D0100704D50F2B04D0009B52
:100CE000E36253E00F2B59D194F82B30590643D4CB
:100CF000720649D5236906F0BF0695F80D90E362A8
:100D00006B7B4B4542D1EA7EAB7E53EA02233DD159
:100D10002F780122DAF810B007F03F077B1E0D276D
:100D20005F432C4B13F8011B681815F801804078BD
:100D300048EA00286AB3FF2F039327D8404650F0B3
:100D400045F9791C02903BF81700019150F03EF9EB
:100D5000029A82421AD101994246039B0F461E49CC
:100D60009942DFD12B785B0603D512B13BF81730DF
:100D700063B9013E5FFA86F800212046FFF755FE71
:100D80000746002894D01EE0B045B9D04FF0FF08C8
:100D9000F2E74FF6FF718845E1D0F7E7B8F1000FB1
:100DA00004D12846FFF72BFA48450CD094F82B7055
:100DB00017F0010793D10B2204F1200128468EF091
:100DC00085FC00288BD1384605B0BDE8F08F04279C
:100DD000F9E700BF063E0D08133E0D082DE9F04F60
:100DE00090F82BB089B005461BF0A00440F0E180DC
:100DF00007683A6932F81430002B6BD105F12006F0
:100E00000DF1140A1BF0010F96E807008AE80700AD
:100E100000F0D68040234FF0010885F82B30B4460F
:100E20003B69B8F1050F9AE80700ACE803002CF81D
:100E3000022B4FEA12428CF800205ED9981E4246DF
:100E400030F8021F002947D10DF1130C072102F0E1
:100E50000F0E01390EF13000392888BF0EF137002E
:100E60000F2A0CF801094FEA121048D808AB7E206F
:100E70005A1802F8140C05F11F0000228446914212
:100E800006D01CF801EF02F10109BEF1200F38D1A4
:100E9000072902F1010297BF08AB4FF0200C03EBCA
:100EA000010C013198BF1CF814CC072A00F802C0CD
:100EB000EED92846FFF7E8FE814600287CD108F1EC
:100EC0000108B8F1640FAAD14FF00709484609B0EC
:100ED000BDE8F08F01348DE74FF0100C01F0010EEA
:100EE00049080EEB4202D30344BF82F4883282F0F9
:100EF0002102BCF1010CF1D1A2E74246A4E702466F
:100F0000A5E74A46BBE729692846A1EB4411FFF74C
:100F100075FC81460028D9D14FF6FF783046FFF79F
:100F20006EF90190A9693846FFF7EBF98146002870
:100F3000CCD1EB69E1B2019A4FF00D0CD7F810E07B
:100F40005A734FF00F02DFF8DCA0DA724A1E1873F2
:100F50000CFB02F284469876D87640451AF8019B3D
:100F60000CF1010C18BF3EF8120003EB090B18BF7F
:100F7000013203F809004FEA1029002808BF404653
:100F8000BCF10D0F8BF80190E7D1404502D03EF83F
:100F900012200AB941F040011970012300212846AE
:100FA000FB71FFF742FD814600288FD1013CB9D18A
:100FB0001AE04FF0060989E7042887D185F82BB09D
:100FC0001BF0020F28461BBF0C340D210124B4FB7B
:100FD000F1F418BF01342146FFF77CFD814600285B
:100FE0007FF474AF013C8ED1A9693846FFF789F9C7
:100FF000814600287FF46AAF01462022E8698EF01E
:101000004FFBEB6903CE18605960B27831889A7251
:10101000198195F82B30EA6903F018031373012343
:10102000FB7153E7063E0D08F8B50446FFF744F997
:101030000546002842D16379032B37D1277A012F47
:1010400034D104F13C0601464FF4007230468EF074
:1010500027FB55234122722184F83A32AA2384F8CF
:101060003F2004F5097084F83B32522384F8222291
:1010700084F83C3084F83D30612384F8201284F8F1
:101080003E3084F8233284F82112A169FFF7A4F8D6
:10109000616904F50A70FFF79FF8A26A3B46314682
:1010A00001322068A26301F0ACFB257200222068A7
:1010B000114601F0BBFB003818BF0120F8BD2DE937
:1010C000F0470026D0F800A007460C468E758369CD
:1010D000002B00F09380C36A01336ED1F9690023BD
:1010E0002E264D1E184615F8012F0130202A0CD04F
:1010F000052A08BFE522092804D10B2B9EBFE7185B
:1011000001337E72E71801337A720B28EBD1E218B3
:1011100000205072A27D002A5FD1002B54D06FF0C6
:10112000080604F109020825361BB31812F8010B52
:1011300000284CD02E2883B262D0A3F14100192898
:1011400003D8087B054200D020331373EDE7B9F1D3
:10115000000F05D100F520539BB2B3F5006F13D3F8
:1011600040F2B51140EA09404FF0FCFEFF28C8F1FB
:10117000FF051AD9012D23D904EB0803020AD875FB
:101180009A7502239844002002368146DAF810301E
:10119000985B0028DBD14546B9F1000F4FF0000302
:1011A00018BF00252544AB7598E758B1002DF3D042
:1011B00004EB080398750123E4E7B146B046E5E780
:1011C0000025E9E70546E7E73F23A375012323440C
:1011D00000229A750B7B03B96372CB7A01F11C0074
:1011E0002372FEF7F1FF2060CA7D8B7D43EA022364
:1011F000E3804A7E0B7E43EA0223A380BDE8F087AA
:101200001025A2E72DE9F04F0B7887B006468846F7
:101210002F2BD0F800B001D05C2B09D142461378B7
:10122000904601322F2BFAD05C2BF8D0002301E03E
:10123000DBF81C30B36098F800301F2B00F22981D6
:1012400080230021304686F82B30FFF7D7FA07B00D
:10125000BDE8F08FFE2D00F245812AF815300135EA
:101260001DE108F101010591DDF8148098F80020D6
:101270002F2AF6D05C2AF4D0202B34BF042400247B
:10128000012D2CD1BAF800302E2B2ED1002306F1DF
:1012900020022AF815309D428CBF2E2120210133D7
:1012A0000B2B02F8011BF6D144F02004304686F8DF
:1012B0002B40FFF7E9FC96F82B30002800F0D8808F
:1012C0000428C4D1990603F0040240F1CD80002A1D
:1012D00000F0DF808023002086F82B30B7E7022D56
:1012E00003D1BAF802302E2BCCD0AAF1020285BB72
:1012F00000232AF81530002D00F0F4803AF813206E
:1013000019460133202AF9D009B92E2A01D144F017
:101310000304AAF1020232F815302E2B01D0013D50
:10132000F9D14FF020334FF0000973624F4633621A
:10133000C6F8273008233AF811004A1CE8B12028E3
:1013400003D02E280DD195420FD044F0030411464E
:10135000F1E732F81530202B01D02E2BC8D1013DFA
:10136000C5E7994504D2954233D10B2B2AD101E030
:101370000B2B22D144F003040B2396F82020E52AFE
:1013800004BF052286F82020082B04BFBF00FFB24F
:1013900007F00C030C2B03D007F00303032B01D140
:1013A00044F00204A30781D4FD0748BF44F01004B1
:1013B000780748BF44F0080478E7954202D044F02B
:1013C0000304DAD3BF002A460B234FF00809FFB20B
:1013D000BDE77F2813D940F2B511CDE9022344F0CF
:1013E000020301934FF0BEFD10F0800FDDE90223F0
:1013F00010D000F07F003D49085C019C30B1DFF85F
:10140000F4C01CF8011BE9B18142FAD144F0030495
:101410005F2010E0FF28F0D9591E894503D344F01E
:101420000304994693E706EB0901040A09F101094F
:1014300081F82040019C06EB090109F1010981F8BE
:10144000200084E7A0F1410189B2192902D847F0B0
:101450000207F0E7A0F1610189B219299EBF203887
:1014600047F0010780B2E6E7002A08BF0520EEE654
:101470005A073FF5ECAEB379DB0635D533690BF18E
:101480003C019BF80500C3F308031944FEF7F9FE7D
:10149000B06033680025CDF81480D3F810A005A8FB
:1014A000FEF7DFFE421C1DD0B0F5803F24BF030CC9
:1014B0002AF8153083B228BF01351F2B7FF6D4AE32
:1014C0002F2B3FF4D1AE5C2B3FF4CEAE7F2B3FF6FB
:1014D000C1AE1846064911F8012B002A3FF4BAAEF6
:1014E0008242F8D10620B2E60520B0E6863D0D081E
:1014F000423D0D084B3D0D0800214171FEF754BFE0
:101500002DE9F04305468DB090461E460C46002955
:1015100000F0BB8003F03F073946FEF745FF002887
:1015200040F0AB80414668460095FFF76BFE0246EF
:1015300020B99DF92B30002BB8BF062216F01C0FE6
:101540006BD0002A3CD0042A37D16846FFF746FC0E
:10155000024690BB47F00807DDF81C90A8464946B4
:1015600018F8050FFEF78DFE0646A3F0A9FE01460A
:1015700009F10E00FEF730FE079B20224046DA728A
:1015800000220799FEF78CFE079B00221A775A77F4
:101590009A77DA770123EB71DEB131466846D5F8E8
:1015A0003880FFF7E0F9024638B9013E4146284647
:1015B000FEF7A7FE6E61024658B10023236028E0C3
:1015C0009DF8063013F0110F31D1700757D4310751
:1015D000C2D4AB6B3907079E236248BF47F0400770
:1015E000314666626879FEF74CFE0146A06006F15E
:1015F0001C00FEF7E9FD6B89BA060646A3804FF092
:101600000003E060256027746374E361636110D4B4
:10161000002210460DB0BDE8F083002ACDD19DF820
:101620000630DA062DD4B607D3D5D807D1D5072290
:10163000C3E70028ECD0EF8960617F02B7420FD387
:101640000022A161002AB8D1C6F30803002BDFD025
:101650002846FEF7C9FDB0B100EB5620E061D8E79F
:101660002068F61BFFF770F80128014603D9431CD8
:10167000E4D10122E5E70222E3E702469DE70822E2
:101680009BE7042299E7022297E70922C1E72DE9A7
:10169000F04F994685B00023884603A90446C9F84F
:1016A00000301746FEF7BAFD0646F8B9667CEEB97B
:1016B00094F810A01AF0010300937BD0E2686369EC
:1016C000D21A974228BF174687B16269C2F308034E
:1016D000002B56D1039BDB89013B13EA522A15D11B
:1016E00042B9A06801280AD802266674304605B0BF
:1016F000BDE8F08FA1692068FFF726F8F2E7431CE8
:1017000003D10123009E6374F0E7A061DDF80CB003
:10171000A1695846FEF768FD0028E5D0B7F5007FBF
:101720000AEB00022CD3BBF80E100AEB57207D0AFF
:1017300001928842DBF8000088BFA1EB0A05414610
:101740002B4601F04FF80028DBD10399CB795BB130
:10175000886B019A801AA84206D24FF400723C317D
:1017600008EB40208DF056FF6D02D9F800307F1B4A
:10177000A8442B44C9F8003063692B446361A3E794
:10178000E2616569E169C5F308050398C5F500756F
:10179000BD4228BF3D46FEF7B4FD0028B1D10399F4
:1017A0002A46636940463C31C3F3080319448DF06F
:1017B00031FFDAE7072699E72DE9F04F9A4685B021
:1017C0000023894603A90446CAF800301746FEF7ED
:1017D00025FD064618BB667C0EBB237C9A0740F1AC
:1017E000A7806369FB4200D3DF43A7B16369C3F3FA
:1017F0000802002A7FD1039AB2F80E8008F1FF3860
:1018000018EA53281ED173B9A06870B90146204662
:10181000FFF735F848B9237C43F040032374304682
:1018200005B0BDE8F08FA169F1E7012802D10226D9
:101830006674F4E7431C01D10126F9E7A368A061AF
:1018400003B9A0600398E369826B9A4203D1FEF763
:1018500033FD0028F0D1039DA1692846FEF7C4FCA2
:101860000028E4D0B7F5007F08EB000B35D3E989F9
:1018700008EB57207B0A5A468842286888BFA1EBAC
:1018800008034946019300F0BCFF05460028D3D168
:10189000DDF80C80019BD8F83810A1EB0B019942C0
:1018A0000AD24FF4007209EB412108F13C008DF09F
:1018B000B1FE019B88F807505D02DAF800307F1B0B
:1018C0006269A9442B441544CAF80030E368656195
:1018D000AB422CBFE360E56087E76169E36899424A
:1018E00007D32846FEF7E8FC0028A5D1039BC3F8E0
:1018F00038B0C4F81CB06569E169C5F30805039800
:10190000C5F50075BD4228BF3D46FEF7FAFC00282C
:1019100092D103982A46636949463C30C3F30803D1
:1019200018448DF077FE039B4FF00102DA71C4E793
:10193000072674E7F7B501A90546FEF76FFC0446D4
:1019400068BB2C7C14F0400429D0A3F0B9FC296AB0
:1019500007460198FEF7D5FC044600BB6E6AF37A91
:10196000314643F02003F3722868AA680530FEF779
:1019700097FCE96806F11C00FEF72EFC394606F1DB
:101980001600FEF729FC01230198B474F474C371A6
:10199000FFF74AFB2B7C044623F040032B742046C0
:1019A00003B0F0BD13B50446FFF7C4FF28B901A981
:1019B0002046FEF733FC00B9206002B010BD70B5C0
:1019C0000E468CB000210546FEF7EEFC044660B9D9
:1019D000314668460095FFF715FC044690B99DF91D
:1019E0002B30002B04DA029BEB6120460CB070BD5B
:1019F0009DF80630DB0609D507996879FEF741FCAA
:101A0000E861F2E7042808BF0524EEE70524ECE7C7
:101A10002DE9F0470E460021D2B081463170904644
:101A2000FEF7C2FC054608BBD9F81C304446CDF889
:101A300000900293DDF808A0BAF1000F1CD14445D4
:101A400004BF04F1FF342F23A4EB060108BF335574
:101A500033461A5D03F8012B5A189045F9D8A8EBC4
:101A600004030134A04538BF01231E440023284647
:101A7000337052B0BDE8F08720216846FEF7BEFE05
:101A800000284BD106994846FEF73BFC0746002844
:101A900042D1079999F80500FEF7F3FB3946029009
:101AA0006846FEF7ABFE002838D100216846FFF7F4
:101AB00033F80746B0BB079999F80500FEF7E1FB3C
:101AC00050450AD039466846FEF7AFFF0028ECD0F3
:101AD0000546042D08BF0225C8E70CA96846FFF794
:101AE000EEFA0DF1460212F8011B3B4601370029C0
:101AF000F9D1BC4214D331191A4632B9621ED21A36
:101B0000DB431C442F23B35494E7013A0CA8104440
:101B1000807D01F8010DF0E70546A7E70546A5E73A
:101B20001125A3E70546D4E72DE9F3410D4601A9A8
:101B30000446FEF773FB0646002850D1667C002E53
:101B40004DD1E368AB4204D2227C12F0020F08BFF1
:101B50001D460022636962619DB90020E2686369E5
:101B6000934284BF227CE360C3F3080384BF42F046
:101B700040022274002B32D0E369834218BFE06137
:101B80002DE0019AD7897F02FBB1013B6A1EB3FBAE
:101B9000F7F1B2FBF7F28A4217D37A42A1691340F8
:101BA000ED1A63610029D8D0BD42636922D8636908
:101BB0002B446361C5F30803002BCED00198FEF7D8
:101BC00013FB50B100EB5520C8E7A16881B920464E
:101BD000FEF755FE0128014605D1022666743046FF
:101BE00002B0BDE8F081481C01D10126F6E7A160F2
:101BF000A161D7E73B44A5EB07086361237C9A0703
:101C000006D52046FEF73BFE054628B90146CEE73D
:101C10002068FEF799FD05466B1CE6D0012DDCD946
:101C2000019B1B6AAB42D8D92946A5614546BBE753
:101C300070B5054616460C4621B30021FEF7B4FBED
:101C400068B9314620462560FFF7DCFAE0B994F91F
:101C50002B30002B0BDBA379DB0603D405200023FC
:101C600023600EE06879E169FEF70BFBA0606B89E9
:101C700000212046A380FEF7C1FD0428EED00028F5
:101C8000EDD170BD0920FCE70428E7D0E7E713B5E4
:101C900001A90446FEF7C2FA00B9206002B010BDE7
:101CA00073B50D4601A90446FEF7B8FA20B90146FE
:101CB00020461DB9FEF7A2FD02B070BDFEF72CFF55
:101CC00010F0FB06F8D129462046FFF7F8F9314617
:101CD0002046FEF7AAFE042808BF0020ECE770B5F6
:101CE00004468CB00E4600211546FEF75DFB0094BD
:101CF000044670B931466846FFF784FA044640B995
:101D00009DF92B30002B07DB1DB129466846FFF7F4
:101D1000D6F920460CB070BD0624FAE72DE9F84F3D
:101D2000884600210446FEF73FFB054640B9D4F83B
:101D300020A0A369AAF10202934204D8C8F8003097
:101D40002846BDE8F88F6379012B17D10227064694
:101D500039462046FEF7F8FC431C38D0012838D01D
:101D600000B901360137236ABB42F1D8C8F80060D8
:101D7000237AA66143F001032372E1E7E16A074693
:101D8000064604F13C0937B9204601F1010BFEF784
:101D9000B8FA00BB5946637909EB0700022B0DD155
:101DA00019F807300237427853EA022308BF013698
:101DB000BAF1010AC7F30807E5D1D7E7FEF704FA3D
:101DC00030F0704307F1040708BF0136F0E7012542
:101DD000CCE70225CAE70546C8E7F0B50E4699B03C
:101DE00002210546FEF7E0FA044688B93146684606
:101DF0000095FFF707FA044650B99DF82B30980676
:101E00003BD4190639D49DF80670FA0703D5072488
:101E1000204619B0F0BD07996879FEF732FAFB0643
:101E200006460BD46846FEF707FF04460028EFD1AC
:101E3000D6B92846FFF7F8F80446E9E7EB6983428C
:101E4000E5D021460E900CA80C95FEF7D7FC044671
:101E50000028DDD101460CA8FEF75EFE04460028EE
:101E6000D5D00428D4D1DDE7024631466846FEF7D6
:101E70007AFD04460028CBD1DBE70624C8E72DE92C
:101E8000F0430E4691B002210546FEF78DFA044656
:101E900000286CD1314604A80495FFF7B3F9044635
:101EA000002872D0042862D19DF83B1011F0200167
:101EB0006DD168460095FEF7E2FC064600285AD030
:101EC00001285AD0431C5C425C41A3F0F9F9074653
:101ED000002C54D131462846FEF77DFD04460028EB
:101EE0004DD14FF0203305F13C0405F1050839468A
:101EF000EB6305F152002B64C5F843302E2385F8BF
:101F00003C30102385F84730FEF766F9324621460B
:101F10004046FEF7C5F905F15C031A4651F8040B7B
:101F2000994242F8040BF9D12E234FF00109069A89
:101F3000404685F85D30FEF7B3F904A885F80790B0
:101F4000FEF74CFF0446D0B90B9839461630FEF721
:101F500043F932460B994046FEF7A2F90B9B10223B
:101F60002846DA7285F80790FFF75EF804462046A7
:101F700011B0BDE8F0830724A7E70224A5E70022FB
:101F800031466846FEF7EFFCF1E70824EFE7062448
:101F9000EDE7F0B50D46A1B0022104461746FEF765
:101FA00003FA002878D1294608A80894FFF72AF9EF
:101FB000002871D19DF84B3013F0A00F6ED10F9B0C
:101FC0006D4603F120061868083353F8041C2A46AE
:101FD000B34203C21546F6D108AE14AD0FCE0FC5FD
:101FE0000FCE0FC596E80F0085E80F00394614A8FC
:101FF000FFF708F948B9169A0A9B9A4203D1189A32
:102000000C9B9A4203D0082046E0042844D114A82F
:10201000FEF7E4FE00283FD11B990DF10D030DF1F1
:102020001D0001F10D0253F8045B834242F8045B8A
:10203000F9D11888012510809B7893709DF80B309A
:10204000DA0658BF43F02003CB72E571CB7ADB068A
:102050001BD50A9A169B9A4217D06079FEF711F9A0
:1020600001462046FEF7C0F80146C8B12046FEF7FB
:1020700048F988B994F85D302E2B06D1169A04F1F0
:102080005C01601DFEF70CF9E57108A8FEF7D4FDB0
:1020900010B92046FEF7C8FF21B0F0BD0620FBE7CF
:1020A0000220F9E7F0B595B0064601910221FEF74E
:1020B0007BF90446002833D14FF0203302AF0546A8
:1020C00002937B60C7F80730019B1B781F2B20D839
:1020D0009DF80830E52B22D01DB16B1EFA5C202A3A
:1020E00035D0002108A808960A91FEF787FB044620
:1020F000B0B9012108A8FEF70FFD98BB0F9A45B3B0
:102100003B4603CB1060516019889B781181937214
:1021100021E001A8FEF7A5F8B0F5803F03D306241F
:10212000204615B0F0BD4EF051FF40F2B5114EF013
:1021300019FF0028F3D01D4A12F8013B13B1984251
:10214000FAD1ECE7FF2822D80A2D28D9E7E71D4667
:10215000C2E7E523137001233046F371FEF764FFF5
:102160000446DDE70428FBD1002DD9D0012108A8C1
:10217000FEF7B0FC04460028D2D1202201460F9879
:102180008DF08EFA08220F9BDA720F9AB8E7092DAC
:10219000C5D814AB020A2B44013503F8482C14AB04
:1021A0002B44013503F8480C8EE700BF133E0D08A1
:1021B0002DE9F04F1C4600238BB0D0F8008043710E
:1021C000154603790DF11F02029140460521019346
:1021D00000F02CFB9DF81F30DA0700F189825E07C2
:1021E00000F1888208AA0321404600F01FFB30B9A5
:1021F000089A531EB3F5004F01D21A4201D00123B1
:1022000008935DB1A5F500725B4B9A4203D9132088
:102210000BB0BDE8F08F6B1E2B42F8D1002C00F004
:102220006B82149BB3F5007FC0F06682019B002B8C
:1022300066D0012300222146404600F0D3FA08B1BF
:102240000120E5E794F8FF2194F8FE3143EA0223E8
:102250004AF65522934201D00E20D9E7019B04EBA8
:10226000031303F5D77193F8B231002BF4D001F1C9
:102270000800FDF7A9FF074601F10C00FDF7A4FFD8
:102280000990DDF824A0BAF1150FE5D9B5F5813F25
:10229000BDD2029B6A0A13F002030593029B42D04F
:1022A00003F00703022B00F03582029BD80740F1B0
:1022B0003182002A40D14FEA1A353048012630F8E1
:1022C000023B0BB1AB4235D9BAFBF6F540F6F573DC
:1022D0009D424FF0200394BF05EB45050235049362
:1022E0008BBF4FF0020901356D004FF001094FF02F
:1022F00001039CBF6D08033505F2FF156D0A2CE242
:1023000009AA0121404600F091FA002898D1029BC9
:1023100013F0080F099B14BF00273F27BB429BD334
:10232000DB1B0993ADE7D907C3D470E75200F8E18E
:102330001346FDE17600C2E71646C5E7B9F1020F84
:102340001ED14FF6F5700399814208D9002A40F05A
:10235000DD817600402E00F239823246A9E740F650
:10236000F5700399814213D8002A7FF475AF72008B
:10237000802A9ED970E700BF00FEFF00263E0D08B0
:1023800040F6F572039991423FF666AF4FF00109AE
:102390004FF400720021204605938DF081F9D74A51
:1023A000059BB9F1030F1168A373C3F307232160E1
:1023B0005168E3734FF0010361601189927A2181C2
:1023C0004FF00201A2724FF00002237414BF0B46BB
:1023D0001346BAF5803FE272217366736274A37488
:1023E00080F01D8184F813A0CAF3072A84F814A092
:1023F000F8234FF0000A394604F11C0063753F23AF
:1024000084F819A02376FF2384F81BA0A376FDF798
:10241000E3FEB9F1030F40F00881A2F051FF01463D
:1024200004F14300FDF7D8FE294604F12400FDF72E
:10243000D3FE022304F1470284F82DA084F82C3047
:10244000012384F82EA084F83030062384F82FA0CE
:1024500084F83230802384F831A084F84030292376
:1024600084F833A084F84230A54B03F1100153F8EF
:10247000040B8B4242F8040BF9D1198840469B7833
:102480001180214693704FF055033A4684F8FE318F
:102490006FF0550384F8FF31012300F0B2F9824652
:1024A00000287FF4CDAEB9F1030F3ED10123BA1D50
:1024B0002146404600F0A5F94FF4007251462046EF
:1024C0008DF0EEF8522341227221237004F5F4704E
:1024D00063706123E270A37084F8E731039B84F892
:1024E000E41184F8E511591E84F8E621FDF774FE25
:1024F0000223FA1D214684F8EC314FF05503404683
:1025000084F8EDA184F8FE316FF0550384F8EEA154
:1025100084F8FF31012384F8EFA100F072F9012360
:1025200021464046FA1800F06CF9149B0021204621
:1025300023F4FF7222F001028DF0B2F8B9F1030F1B
:1025400040F09080F8232370FF236370A370E37042
:1025500023716371A371E37123726372A3720F23FA
:10256000E372149B5B0A0393039B21465A46404641
:10257000AB4228BF2B469A4600F043F9014600289B
:102580007FF45EAE4FF4007220468DF089F8B5EB13
:102590000A05D344E8D1049BB9F1030F18BF1E46C6
:1025A000039B5A4621464046B34228BF33461D4648
:1025B00000F027F900287FF443AE761BAB44EFD13F
:1025C000B9F1030F58D0099BB3F5803F56D2B9F14A
:1025D000020F0CBF04250125019B002B50D00022C7
:1025E00001232146404600F0FDF8024600287FF412
:1025F00027AE019B04EB031383F8B251012321465C
:10260000404600F0FEF800287FF41AAE0022404653
:10261000114600F00BF9003818BF0120F8E55146CB
:1026200004F12000FDF7D8FDE2E6A2F049FE0146E4
:1026300004F12700FDF7D0FDC5F3072304F12B02B9
:10264000A575E375802384F82430292384F8263087
:102650002C4B03F1100153F8040B8B4242F8040B8E
:10266000F9D10AE7B9F1010F2749204618BF6FF0E9
:102670000701FDF7B1FD74E70C25ADE70625ABE7D3
:10268000029B1B07C2D44FF4007201992046012619
:102690008DF006F85523099A394684F8FE31AA23AD
:1026A0003A4404F5E37084F8FF31019B84F8BF617C
:1026B00084F8BE3184F8C13143F6C16384F8C06147
:1026C00084F8C251B2FBF3F2FE2384F8C52184F8EA
:1026D000C331930843F03F0384F8C431FDF77CFD18
:1026E000099904F5E570FDF777FD3346019A86E711
:1026F00003208DE50A208BE5112089E5523D0D0868
:102700005E3D0D08723D0D08F8FFFF00059B002B94
:102710003FF4A2AD002A7FF40BAE4FEA5A452F4892
:10272000012230F8023B1BB1AB427FF6FFAD002324
:102730002B4EBAFBF2F08500A0F57F40F63805F28B
:102740000725B0424FEA55253FF686AD16461A4694
:1027500000234FF0030904932023049807EB030B95
:10276000DDF820E0B9F1030F05EB000C0EF1FF30AE
:10277000CEF1000EDC44604400EA0E00A0EB0C0039
:1027800006BF1B1883442D18C7EB06108444E2458E
:10279000FFF462AD0498B9F1030FAAEB0000A0EBBF
:1027A0000300A0EB0500B0FBF6F003907FF4C6AD8C
:1027B0004FF6F570039981423FF6EAAD002A7FF4A7
:1027C0004BAD012E7FF648AD7208A3E7059B002BA9
:1027D000A3D1802E3FF640AD324675E5343E0D085C
:1027E000FFFFFE0F10B50C4611461A4638B12346BE
:1027F00004303EF07DFC003818BF012010BD0420DD
:10280000FCE710B50C4611461A4650B12346043079
:102810003EF092FC10F11E0F05D0003818BF0120C9
:1028200010BD0420FCE70220FAE7000070B50D4659
:1028300014460646002833D001F00703234AD15C32
:1028400000292FD0002204303EF09EFC062D27D810
:10285000DFE805F008050A162619190006202BF0F6
:1028600075F92060002070BD062805D14FF4007373
:1028700023802388B360F5E72BF068F92080F8E720
:1028800001232360EEE7062801D0430806D1336A0E
:10289000002B0CBF042300232370E3E70123FBE795
:1028A0000420E0E7062DFBD801A353F825F000BF74
:1028B000652800085D2800086D28000881280008A8
:1028C000A12800088F2800088F280008144B0C0846
:1028D000086833F034BF000037B51D46043001AB43
:1028E0001446FEF769FF38B1064B1B5C4FF0FF340E
:1028F0002B60204603B030BD019BA342F9D01C23BE
:10290000F4E700BF3C4B0C0813B51C46043001AB88
:10291000FEF7BDFE30B1044B1B5C4FF0FF3023606F
:1029200002B010BD0198FBE73C4B0C0813B5044600
:10293000084601912BF076F8019B02460349204698
:1029400002B0BDE8104001F07FB800BF1C4B0C087E
:102950002DE9F843304F804610468946002431F077
:1029600075F93A4601382D4910F8013FCBB92C20B2
:102970001DF074FC06460546484646F8047B31F0D7
:1029800065F931460246E3B208F14400FEF7B8FDAE
:102990000746B8B328461DF07BFC214BD85D2AF0D2
:1029A00089FA782BE0D8712B08D8612B23D0622BC1
:1029B00024D02B2BD8D144F00304D5E7723B062B4F
:1029C000D2D801A555F823F0E529000869290008A7
:1029D000012A00086929000869290008EB29000874
:1029E000F129000844F00104BEE744F00A04BBE703
:1029F00044F00604B8E744F01204B5E70F46B3E725
:102A00001746B1E7E30603D529693046FFF78CF88E
:102A10002846BDE8F88300BF704B0C08504B0C08EB
:102A20003C4B0C08022970B5044615461E4613D1CE
:102A30005368012B0AD0022B0CD01BB91168201D42
:102A4000FFF772F8A3692B60002070BD81692B68C5
:102A50001944F4E70169FAE701290AD10430FEF7C5
:102A600069FF0028F0D0084B1B5C4FF0FF3033604B
:102A7000EBE7042906D14368002BE5D00430FEF7CC
:102A800091FFEEE71623F0E73C4B0C082DE9F04FE1
:102A900006291E4680468B462DED028B85B0B0EE92
:102AA000408A9DF84030009214D8012906D93F236E
:102AB00008F8013B002388F8003001E00029F9D133
:102AC000BBF1010F94BF0020012005B0BDEC028BCB
:102AD000BDE8F08F10EE102A0546002A24DAB4EE85
:102AE000400AF1EE10FA1FD6B1EE408A2D2305F808
:102AF000013BF0EEC87A9FEDBF7A009BF4EE477A77
:102B000003F02003F1EE10FA13DD83F04902E81C14
:102B10002A7083F04E0283F046036A70AB70002384
:102B20000370A0EB0800D0E7002BE2D005F8013BD2
:102B3000DFE7B4EE488AF1EE10FA08D743F04E0210
:102B400083F04103E81C2A706B70AA70E7E7009BD2
:102B5000002E43F0200AB8BF0626BAF1670F02D153
:102B6000002E08BF0126A5EB080718EE103AABEBC4
:102B70000707191E07F1FF391CD1BAF1660F09D1F9
:102B8000731C66214B454FF00003A8BFFE1E771C47
:102B900099460CE0731D51464B454FF00003A8BF0A
:102BA000FE1FBAF1650F1F46F2D14FF02B099C466C
:102BB0001C4638E0C1F3C7539FED8F7AB1F17E5FB9
:102BC000A3F17F0307EE903AF8EEE77A67EE877A93
:102BD000FDEEE77A17EE904A80F0AB806342F8EEA4
:102BE000E70AB2EE040A019389F07EFD019B1C46C0
:102BF000B4EEC08AF1EE10FA7FD4BAF1660F08D0B5
:102C0000BAF1670F40F08480042C00F38180631ECA
:102C10001E44731C4B454FF00003A8BFFE1E99468F
:102C20009C46771C6621652926EAE67040F0D8802C
:102C3000471C1E46F2EE048A0023ACEB060201920A
:102C4000002F80F2DB80042B28DD6B1E4FF0300C50
:102C50001E785F1E2E2E00F00781A6F1300EBEF109
:102C6000090F40F2038101331E78302E16D15F78B0
:102C70002E2F40F00881662900F00581B9F12D0F53
:102C80001F705E7040F0FD80013C08BF4FF02B09C3
:102C900029468B42C0F0FE8031211970BAF1670FCE
:102CA0000AD148B12B461D46013B15F8012C302AAC
:102CB000F9D02E2A08BF1D46B9F1000F18D00A21FD
:102CC000009B85F80190043503F0200A94FBF1F392
:102CD00093FBF1F201FB13444AF0450A01FB123267
:102CE000303405F804AC303205F8014C05F8022CFC
:102CF0000023A5EB08002B70E7E60134B2EE040ACE
:102D0000634200EE903AF8EEE00A89F0EDFC6FE7DE
:102D1000BB1FB34204DCBAF1670F14BFFE1F1E468F
:102D200088EE008A6342514600274FF02D09BC46C9
:102D300079E7631CB2EE040A00EE903AF8EEE00A7E
:102D400089F0D2FCB4EEC08AF1EE10FA17DABAF1CB
:102D5000660F22D14C452CDA331901334B4507DB82
:102D6000A9EB0409B9F1010FA9F1020608BF002679
:102D7000A7192346A4464FF00009013752E7631C08
:102D8000B2EE040A0193A31C00EE903AF8EEE00ABA
:102D900089F0AAFC019B1C46D4E7BAF1650F08D064
:102DA000BAF1670F10D02346514600274FF02B0988
:102DB000BDE7BB1FB34200DCFE1F002723464FF0D8
:102DC0002B096521BC462EE7331D4B4500DBBE1F9A
:102DD000B44202DB23466721E7E7631CF61AC7E724
:102DE00067297FF426AF002ED6BF01270746384655
:102DF0001FE700BFFFFF7F7F9B209A3E002E30DD44
:102E000007EE906AB2EE040AF8EEE70ACDE9021086
:102E100089F06AFCDDE902100023B4EEC80AF1EE85
:102E200010FA04DC013338EE408A092BF5D1AC46A8
:102E30006FB1019A03F1300EF2420CF801EB06D1AA
:102E400028B14FF02E0E05F1020C85F801E0002E9E
:102E500007F1FF3706F1FF366546D8BF28EE288A0E
:102E6000EEE6B7EE000AD7E73B46F1E6392E02D090
:102E700001361E70F8E6984587F801C0F4D1434644
:102E8000F2E6013404E7691CA1EB08065E4538BF91
:102E90000D46FDE611F8016C01F80169F9E600BF85
:102EA000044608B531B1054B4A6C0360002309683C
:102EB0002CF01CFF20461DF09DF900BFFC830B0881
:102EC0002DE9FF471E464518019212B1023A222A07
:102ED00034D80446AC42274639D214F8010B1EF010
:102EE000C1FA80460028F5D13B782B2B29D1274603
:102EF000E91B384601AA002428F0D7FA0744B9464E
:102F0000A9454B4626D3B8F1000F00D064426400B7
:102F100044F00104BB4209D01F46AF423B4641D2B8
:102F2000187801371EF09EFA0028F6D12049019A40
:102F300020482CF09BFE3146FFF7B2FF1E4829F0D7
:102F4000B1FD2D2B04BF27464FF00108D0E74FF00D
:102F50000008CDE719F8012BA2F1300ABAF1090FE8
:102F600009D95F2ACCD042F02002A2F161011929CF
:102F7000C9D8A2F1570A01995145C4D9204637F062
:102F8000CBFD28B9019B03FB04A494EA4403B7D505
:102F9000019B4246E91B03A803972EF06DF8039BA3
:102FA0000446B7E7C2D1204604B0BDE8F08700BFB1
:102FB0005F770B088C840B084A770B082DE9F04FDC
:102FC0002DED068B83B09FEDC59A4FF000090446A6
:102FD000B0EE49AA46184F46DFEDC19ACDE900236D
:102FE000129B0AEE903AB44280F0948120781EF051
:102FF00039FA804600283DD123782B2B40D101346B
:10300000B44280F08781237843F02003692B3CD1C0
:10301000A31C9E4240F27481637843F020036E2B20
:1030200040F06E81A37843F02003662B40F0688166
:10303000E31DE51C9E421AD9E37843F02003692B77
:1030400015D1237943F020036E2B10D1637943F01F
:103050002003692B0BD1A37943F02003742B06D1F5
:10306000E37943F02003792B01D104F108059FEDAA
:103070009D8A1FE0B0EE498A0134B0EE489AB2E76B
:103080002D2BC0D101340127BAE76E2B41D1A31CEF
:103090009E4240F23581637843F02003612B40F07B
:1030A0002F81A37843F020036E2B40F02981E51C8B
:1030B0009FED8D8A009B83B1B5420ED22B7843F0F1
:1030C00020036A2B09D1F7EE007AA54249F00209E4
:1030D00005F1010508BFB0EE678A17B1B1EE488A65
:1030E0000127A5420DD0B5422C4680F0CC80207837
:1030F00001351EF0B7F90028F5D1019B002B40F0F7
:10310000D6807A497A482CF027FD1AEE901AFFF7FC
:10311000C7FE0023B2EE047A2546DFED708A9E4694
:103120001A469C461846294611F801BBABF1300AF5
:10313000BAF1090F51D802280AD16E4DAC4502DC14
:103140000A2505FB0CAC8E4200F28C800D465DE03A
:10315000BAF1000F04D0F4EEE98AF1EE10FA13DBB5
:1031600008B90132EFE70EF1010E0120EBE7F4EEB2
:10317000E98A013AF1EE10FA49BFF0EE4A7A0133DA
:10318000E8EE877AF0EE678A002AF0D17246F4EE14
:10319000E98A7AB9F1EE10FA1AD507EE90AA012859
:1031A000F8EEE77AE8EE877AF0EE678A54D1013BD1
:1031B0009646C8E7F1EE10FA02F1FF3241BFF0EE99
:1031C0004A7A03F1FF33E8EE877AF0EE678ADEE7AA
:1031D000002844D101338646B5E790B9BBF12E0FE4
:1031E000C3D04BF0200ABAF1650F0CD18E4240F2E9
:1031F000988068782B2829D1A91CB14281D002205F
:10320000A1E70228EDD1BBF15F0F9CD0B8F1000F10
:1032100001D0CCF1000C13449C441CF1250FBEBF1F
:10322000DFED357A0CF1250C68EEA78A1CF1090F49
:103230001AD3CCF10003B2EE040A00EE903AF8EE95
:10324000E00A89F051FA88EE808A33E72D2808D108
:10325000A91C4FF00108D0E79646104673E7964642
:1032600083E702200D465EE707EE90CAB2EE040A3D
:10327000F8EEE70A89F038FA20EE288A1AE72546A0
:103280009FED168A1AE77FF438AFB9F1010F3FF4CA
:1032900038AFB9F1000F11D0F0EE480AB0EE490A8C
:1032A00003B0BDEC068BBDE8F04F2BF0C5BCB9F107
:1032B000000F7FF426AF4FF00109DEE6019B23B13A
:1032C000B0EE480ADFED050AEAE7B0EE480A03B0BF
:1032D000BDEC068BBDE8F04F2CF018BE00000000DE
:1032E000EC78AD600000807F0000C07F6B770B083A
:1032F0008C840B0864666606EA1C08020000000065
:10330000009B002BBBD1002F3FF4FBAE25461FEDE9
:10331000058AE3E6002225465FED088A13469446B7
:1033200079E73FF4EEAE11E7084611468DF064B937
:1033300037B50546084601918CF0EAF9044620B1FC
:1033400002466B68019928689847204603B030BD53
:103350002DE9F74F89469DF8301017460D9A11F068
:10336000DF0F0646A2EB07023DD030290CA8254905
:1033700013BF80464FF0100A88464FF0010A13F041
:10338000800535D002EBD2746510A2EB6404002DE9
:1033900035DDAB46DA45524673684146A8BF5A460A
:1033A000306801929847019AABEB020BBBF1000F1A
:1033B000F0DC2FB13D4473683A464946306898477F
:1033C000002C0CDD2544A245574673684146A8BF32
:1033D00027463068E41B3A469847002CF3DC284621
:1033E00003B0BDE8F08FDFF820804FF0100AC6E789
:1033F00013F0010401D11546C9E71446D9E70025A9
:10340000D7E700BFC5670B08B4670B082DE9F04389
:10341000064689B00020119D9DF84880139F8DF8C5
:103420000F000AB381421ADA2D2249428DF80F208B
:10343000109A08AC0DF11009A2F10A008E46B1FBFA
:10344000F3FC03FB1C126146092A8CBF12183032B0
:1034500004F8012D4C450ED07345EFD90BE0A807B9
:1034600027D52B228DF80F200029E1D130230DF133
:103470001F048DF81F3015F040099DF80F301CD047
:1034800023B301222B460DF10F013046013FCDE958
:103490000082FFF75DFF814608AA2B462146304691
:1034A000121BCDE90087FFF753FF484409B0BDE880
:1034B000F0836A07D8D52022D4E7002BECD004AAE9
:1034C0009442E9D904F8013C013CE5E79946E3E779
:1034D0002DE9F04F93B081461D46C8079DF8743022
:1034E0000C4690461C9E0693DDE91E7A0BD4A1077C
:1034F00003D122687A4B9A4205D020462AF026FB57
:10350000400040F0010416F0810306D1069A302AEB
:1035100003D15745B8BF57469A4620460DF1280BB0
:103520002DF0BCFC002818DBB20712D52B230DF1BF
:1035300029028DF82830F006EDB21DD5B8F1020F42
:103540000DD13021134603F8021B691C51701A4635
:1035500012E0730701D52023E9E75A46EBE7B8F1FB
:10356000080F61D1B1054FF03003137049BF05F169
:103570000E03013253700232A2EB0B03002116F04E
:10358000200F11700EAA05930CBF0B462C23BAF125
:10359000010F0B924FF01002C8BF46F040068DF8A5
:1035A0002710CDE90C2116F04002CDE90253079215
:1035B00044D023460DAA0BA8CDE900810CA92DF01B
:1035C00049FB037880462D2B06D18DF8273000F17A
:1035D00001080D9B013B0D93BAF1010F3CDD0D9DE0
:1035E000079B5545B8BF55462BB19DF8273003B111
:1035F0000135059B1D44AF422BDD16F00103A7EBFF
:10360000050527D12C461D4626F001064CB1202386
:10361000019434494846009300231A46FFF798FE68
:1036200004463023069319E0B8F1100FA4D13021DD
:10363000134603F8021B05F1170187E70AAB0DAA31
:103640000CA90BA8CDE9008323462DF003FB80468F
:10365000C2E700250024D7E700252C46079BDBB1F5
:103660009DF8273053B1002301220DF12701484670
:10367000013FCDE90032FFF76BFE0444059B5BB1CF
:103680000023012259464846CDE90032059AFFF74A
:103690005FFE059B0444FF1A069BBAF1010FC8BFE9
:1036A00057460D9A41460093484633460197FFF727
:1036B0004FFE04444DB120230A494846019500932A
:1036C00000231A46FFF744FE04440B980EAB9842C1
:1036D00001D01CF0DDFD204613B0BDE8F08F00BF27
:1036E00010880B088BE20E082DE9F04316468BB0CC
:1036F00007469846B207DDF848903DD416F0040F0F
:103700000CBF002320230A4600932021139B02A80C
:10371000FFF7BCF9F30504460DD5431C1F2B0AD84F
:103720000AAA00211444252204F8202C0AAA1C46C7
:103730001A4402F8201C16F040051FD09DF80830EE
:103740002F2B4FF000031BD8012202A9384609F1A4
:10375000FF39013CCDE90032FFF7FAFD0DF1090117
:103760000546334622463846CDE90089FFF7F0FD8D
:1037700028440BB0BDE8F0832B23C4E702A9F0E78F
:1037800002A91D46EDE700002DE9F04F824689B001
:10379000144600260B461D4613F8012B82B9A94298
:1037A00011D30B78002B00F04681013120234FF01C
:1037B00000080A4612F8015B7DB94FF00A0C2AE0B6
:1037C000252AE8D1EBE76F1ADAF80430DAF80000BE
:1037D0003A463E4498472946E3E72D2D03D148F069
:1037E00001081146E5E72B2D02D148F00208F8E761
:1037F000202D02D148F00408F3E7212D02D148F032
:103800000808EEE7302D22D148F040082B46E8E7C3
:103810000CFB0525303D0F4611F8012BA2F13000BD
:103820000928F5D92E2A42D17A782A2A11D00A46B7
:103830004FF00A0C0021174612F801BBABF1300023
:10384000092809D80CFB01BBABF13001F3E70025D7
:10385000B3E7023754F8041B21EAE17B3A786C2A7B
:1038600008BF013797F80090B9F1000F00F0E3802E
:10387000B9F1780F6BD8B9F1570F1BD8B9F1470FD1
:1038800062D8B9F1440F62D90734049324F00704D5
:10389000F4E80201A2F090FA049B00EE100A4246FE
:1038A00049465046CDE9005BFFF71EFF63E04FF04D
:1038B000FF3BD3E7A9F15802202A48D801A151F8CB
:1038C00022F000BF053A00084F3900084F390008C0
:1038D0004F3900084F3900084F3900084F390008A8
:1038E0004F3900084F3900084F3900086139000886
:1038F00083390008E9390008893800088938000848
:10390000893800084F3900084F3900084F3900083E
:103910004F3900084F3900084F3900084F39000867
:103920004F390008273A0008973900084F39000836
:10393000C13900084F390008053A00084F3900081E
:103940004F390008053A0008B9F1500F6BD0DAF88A
:10395000043001223946DAF80000013698470BE0BE
:1039600054F8042BCDE9003543463AB104223449DA
:103970005046FFF7EDFC0644791C0BE70522314960
:10398000F6E754F8042B07A98DF81C200122CDE995
:1039900000354346ECE707A954F8040B04931DF0E7
:1039A0003EFBBBF1FF3F0146049B04D0079A9345C1
:1039B00038BFCDF81CB0079ACDE900354346D7E7AC
:1039C00054F8041B0593084604918BF0A1FEBBF14B
:1039D000FF3F0246DDE9041302D0584528BF5A468E
:1039E000CDE900354346C3E7CDE902356123012225
:1039F000CDF8048000930A2354F8041B5046FFF7C7
:103A000005FDB8E709F1010129F00F02CDF80480A6
:103A100001F006010F3ACDE90235D2B2C1F110032F
:103A200000920022E8E7CDE902356123CDF8048059
:103A300000931023F5E7304609B0BDE8F08F00BFD2
:103A4000A0670B08A5670B080EB403B503AA52F8CC
:103A5000041B0192FFF798FE02B05DF804EB03B07F
:043A600070470000AB
:020000040802F0
:10000000FEE700000F490020D1F8883043F4700368
:10001000C1F888300C4B1A6842F001021A609860EF
:100020001A6822F0847222F480321A60074A5A60F9
:100030001A6822F480221A60D8604FF000638B6047
:10004000704700BF00ED00E000380240103000248F
:1000500070B5304C94B0002510260AA8C4F8905012
:100060003246294604956FF01BFB236C01224FF4A6
:10007000A05043F080532364236C192403F0805371
:100080000193019B244B196841F4404119604FF4DE
:1000900080011B68059503F440430293029B4FF4D3
:1000A0008033CDE9082302230F22CDE90E311293CC
:1000B000082303924FF4C07213934FF48053CDE999
:1000C000060308A8CDE90B56CDE9104273F0DEFC1B
:1000D00010B112487AF0BCFC73F04AFC08B1104829
:1000E000F8E7119B03A810996343B3FBF1F33021A8
:1000F000B3FBF1F201FB12321299003AB3FBF1F1BA
:1001000018BF01227CF056FB08B10648E2E714B0A4
:1001100070BD00BF003802400070004008620A084D
:100120001A620A0834620A080446DFF82CD00B4928
:100130000B4A0C4B03E051F8040B42F8040B9A42B3
:10014000F9D300200849094A01E041F8040B914223
:10015000FBD320467AF0D2BDF8FF0420244F0F08CD
:10016000000001204010012040100120CC3E012061
:1001700040F8044B40F8045B40F8046B40F8047B03
:1001800040F8048B40F8049B40F804AB40F804BBF3
:1001900040F804CB40F804DB68467047034B1B680B
:1001A0005B685A6902605861002070471C3E01205C
:1001B000034B1B685B685A6912685A61704700BF3D
:1001C0001C3E0120C460056146618761C0F81C8047
:1001D000C0F82090C0F824A0C0F828B0C0F82CD0F7
:1001E00080ED0C8B80ED0E9B80ED10ABC0F808E02D
:1001F000FFF7D4BF08B5114B1B6859684B690BB9A1
:100200007AF068FD1A6858604A611846C468056942
:1002100046698769D0F81C80D0F82090D0F824A0D7
:10022000D0F828B0D0F82CD090ED0C8B90ED0E9B30
:1002300090ED10ABD0F808E0012070471C3E012083
:1002400010B50021044600F0EDFA18B914B12046AB
:100250000CF014FC10BD002100F0E4BA10B501212F
:10026000044600F0DFFA18B914B120460CF006FC81
:1002700010BDFFF7E5BF10B501220C4600F0E8FB0A
:1002800018B914B120460CF0F9FB10BD00F0E0BB2A
:1002900000F09EBB2DE9F04100252A4C0326D4F83E
:1002A000C0720021013143189A0803F00303BA5CBD
:1002B0005B0042FA03F303F00303022BF2D00901BF
:1002C000D4F8CC324FEA910C03EB001071B300EB81
:1002D0008C0C0268130726D1D4F8CC32D11A934281
:1002E000C1F301134FEA911E4FEA11114FEA430384
:1002F00019D8D4F8D072974215D9D4F8C08206FA2A
:1003000003F218F80E7047FA03F33A4303F00303BD
:10031000012B08D13F2D08F80E2004EB85020CD8E4
:100320000135C2F8DC1204306045D2D145B1013D3F
:1003300004EB8503D3F8DC02B1E7C4F8D832F2E766
:10034000BDE8F081D8350120F0B41A4E0122D6E97B
:10035000B253C01AC109C0F3021704096B5CBA405A
:100360004FEA901C032723EA02036B54A508D6F832
:10037000D43204F00301B3EB901FD6F8C00288BF5B
:10038000C6F8D4C210F80C204900013407FA01F372
:1003900004F0030122EA03024B004255A508D6F8F7
:1003A000C002425D42FA03F303F00303022BEBD0D9
:1003B000F0BC7047D8350120F8B50E46184A194CE4
:1003C000054626F00F060021C4F8C002331AC4F80F
:1003D000D062013BDB00A2FB03235B0A9F005A1C97
:1003E000A6EB8316C4F8C43207371544C4F8CC62B0
:1003F00002EBD702C4F8C8526FF052F90A4A002340
:10040000012110684FF0FF32C4F8D43240680381F4
:10041000C4F8E033A4F8DC13C4F8E423F8BD00BF4B
:10042000F32C23FAD83501201C3E0120034B1B6816
:100430005A68138901331381704700BF1C3E0120A5
:10044000034B1B685A681389013B1381704700BF37
:100450001C3E0120034B1B685B681889003818BFDD
:10046000012070471C3E01201F4B00221B68596869
:100470002DE9F0410B894FF003081C4C013304F1C6
:10048000080504F504760B81C4F8E023C4F8D822EB
:1004900055F8042F13071AD1D4F8CC32D01A9A4247
:1004A000C0F301134FEA90114FEA10104FEA4303D3
:1004B0000DD3D4F8D072BA4209D2D4F8C0C21CF815
:1004C00001E04EFA03F202F00302012A03D0AE4229
:1004D000DED1BDE8F08108FA03F343EA0E030CF81D
:1004E0000130FFF7D7FEF2E71C3E0120D83501208E
:1004F00081B3F8B5041F184E032704EB810554F8A7
:10050000043F1A071AD1D6F8CC22981A9A42C0F39F
:1005100001124FEA901C4FEA10104FEA42020DD828
:10052000D6F8D012994209D9D6F8C01211F80CE0C9
:100530004EFA02F303F00303012B02D0A542DED1F1
:10054000F8BD07FA02F242EA0E0201F80C20FFF7AA
:10055000A1FEF3E7704700BFD83501202DE9F04F29
:100560005A4C85B0D4F8D832002B00F0AB80D4F8C8
:10057000C43200269A00C4F8D862002A43D000256D
:10058000A908D4F8C00205F00303415C5B0041FAFE
:1005900003F303F00303032B41D001359542EFD35E
:1005A000D4F8D832002BE6D16AB300204FF0030A0A
:1005B0004FF001094FF00208064605E0BEF1010FB9
:1005C0004AD0013696421ED2D4F8C032B70806F09F
:1005D0000305D95D03EB960C6D0041FA05FE0EF0A4
:1005E000030EBEF1020F2AD0BEF1030FE6D108FAC6
:1005F00005F50136002021EA0501D955D4F8C432A9
:100600009A009642E0D3324B00221B68C4F8D422F1
:100610005A681389013B138105B0BDE8F08F284665
:100620000135FFF737FED4F8C432B5EB830F4FEA3C
:100630008302A5D3D4F8D832002B9CD1B4E700288C
:10064000BFD00AFA05F5012021EA05018CF8001057
:10065000D4F8C4329A00B4E7F308D4F8C82206F0FC
:10066000070B12F803E002EBD60201934EFA0BF0EF
:10067000C307E6D5D4F8CC023101415800EB06108F
:10068000A1B102AABA210BF06BFBDDE9013242B144
:100690000CF046FCDDE902010CF01EFC0CF056FCEF
:1006A000019BD4F8C812CA1811F803E009FA0BFB31
:1006B0002EEA0B0E82F800E0D4F8C03203EB070CF0
:1006C000D95DBEE7D4F8C4329A006DE7D835012071
:1006D0001C3E0120054B002005491B685A68138900
:1006E00001331381C1F8D802FFF738BF1C3E012047
:1006F000D83501204A4A00232DE9F04FD2E9B34111
:10070000D2F8C0E21F46D2F8C422091B83B0994632
:1007100001601E469C461C461946436083604FEAB2
:100720008208C360BA4601930361436183619EF806
:1007300000304FEA4A0A43FA0AF303F00303012B9D
:1007400038D0022B5BD0002B51D0013188450CBF33
:100750000125002532D08B0801F0030A1EF8033072
:100760004FEA4A0243FA02F212F0030214BFAB4608
:100770004FF0010BBBF1000F45D1012AD9D15D46E5
:100780001346012C21D0022C02D142690132426170
:100790004C4501D9A1468461DBB98B0801F0030AFD
:1007A0001EF803304FEA4A0A43FA0AF303F0030340
:1007B000012BC6D101361C464660C6E7012B14BF8B
:1007C0002B4645F00103012CDDD1026901320261A3
:1007D000DEE7BC4502D96746C0F80CC0CDB1019B2D
:1007E00036011B01C0E9016303B0BDE8F08F019A37
:1007F0000CF1010C1C46013201928260A5E7013622
:1008000001344660A1E7012A14BF2B4645F00103DD
:10081000B7E78B08AC4601F0030A1EF8033088E7FF
:10082000D83501200F302DE9F84306095CD0664B1E
:100830001B685B681B89002B56D1644C0D46B4F8CD
:10084000DC33002B0CBF4FF0010E4FF0000E4FD1E8
:10085000D4F8D402D4F8C472874238D9D4F8C0C2CC
:10086000411E002261441AE0013296424FD913F032
:100870000C0F1ED10132964240F29D8013F0300FD2
:100880001CD10132964240F2998013F0C00F1AD168
:100890000132964240F295800130B84217D211F8E9
:1008A000013F13F0030FDFD013F00C0F4FF00002E5
:1008B000E0D013F0300F4FF00002E2D013F0C00F81
:1008C0004FF00002E4D001300022B842E7D3BEF17D
:1008D000000F09D181F0E2FAD4F8D402D4F8C4723E
:1008E0004FF0010E8742B9D800231846BDE8F883BF
:1008F000D4E9F8239A42ABD381F0D0FAD4F8D402E9
:10090000D4F8C472B842EFD24FF0010EA6E78000CF
:10091000811A012A01F1010703D1431C9B08C4F885
:10092000D432012307F0030E4FEA970802310EFA82
:1009300003FE1CF80890884203FA0EF343EA090309
:100940000CF8083013D34FF0020801F003034FEA0C
:10095000910CD4F8C0E201315B001EF80C90884283
:1009600008FA03F343EA09030EF80C30EDD2D4F889
:10097000CC821201D4F8E003002108EB07130644EF
:100980004FEA07191846C4F8E0636EF089FEEA07DB
:100990000346AAD50022D4F8C802F90807F00707D1
:1009A00048F809200122445C02FA07F7274347541C
:1009B0001846BDE8F88380000130A9E780000230C6
:1009C000A6E780000330A3E71C3E0120D8350120B4
:1009D000044B1A685268128912B908B1FFF7B4BC07
:1009E000704700BF1C3E012010F00F021BD11749B9
:1009F000D1F8CC32834217D810B4D1F8D042844217
:100A00000DD9C31AD1F8C042C3F3011099091B09CB
:100A1000615C4000014101F00301012906D010464C
:100A20005DF8044B70470022104670470132991858
:100A3000880801F00301205C490040FA01F101F04F
:100A400003010229F2D01201E9E700BFD8350120E5
:100A50002DE9F04F8A4683B00746002800F0B480A5
:100A600000297BD0DFF87881D8F800305B681D89D9
:100A7000002D79D1594801F10F06D0F8CC12360972
:100A8000D0F8C432791A9C004FEA111C01940CF181
:100A9000010EBEEB830F80F09E80D0F8C0B24FF005
:100AA00001094FEA9E040EF003031BF804405B00AB
:100AB00044FA03F303F00303022B5AD023B90135A0
:100AC00005EB0903B34256D34E4542D025D34D44DE
:100AD000B54256D2002A47D0D0F8C832C9090CF026
:100AE000070C5046595C41FA0CF101F00101FFF787
:100AF00099FE0446002837D04FEA091239466EF0B5
:100B000089FDD8F800305B681B891BBB3846FFF7AE
:100B10001BFC204603B0BDE8F08F66444FF003088D
:100B2000CC44344604F00303A108D0F8C052013489
:100B30005B006A5C644508FA03F322EA03036B5422
:100B4000F0D1D0F8D432B208B3EB960F88BFC0F81A
:100B5000D4223C46204603B0BDE8F08F204B1B68F2
:100B60005B681C89002CD2D00024204603B0BDE86D
:100B7000F08F09F101090EF1010E019B734590D12F
:100B8000A2E70CEB0904B444A44510D9022104F0F7
:100B90000303A208D0F8C05201345B0015F802E04C
:100BA000A44501FA03F343EA0E03AB54EFD1A6EBDD
:100BB00009023C4607EB0910002112016EF070FD9E
:100BC000204603B0BDE8F08F0146504603B0BDE8B3
:100BD000F04FFFF727BE4FF0010975E7D835012028
:100BE0001C3E012010B58AB0044603A8FFF782FD21
:100BF000059A049B204600920749039AE2F724FFD6
:100C0000069A099B20460549CDE90032DDE9072314
:100C1000E2F71AFF0AB010BD48620A086C620A08BF
:100C20002DE9F047DFF864A106464B49DAF8CC22FB
:100C3000E2F70AFFDAF8C422920079D00024474F85
:100C4000DFF84C91DFF84C810EE0012D40D02E22D0
:100C500043493046E2F7F8FE0134DAF8C432B4EB27
:100C6000830F4FEA830263D214F03F0510D004F0E3
:100C700003056D00A308DAF8C022D35C43FA05F53A
:100C800005F00305022D21D0032DDED16D22DFE713
:100C9000DAF8C012A4464FEA9C000CF00303085C8B
:100CA0005B0040FA03F39B0703D10CF1010C944560
:100CB000F1D3ACEB04027F2A2ED804F003056D00BB
:100CC000220139463046E2F7BFFED3E73D22BFE7B7
:100CD000DAF8CC222301D25842452FD0214B9A4238
:100CE0002ED0214B9A422FD0204B9A422AD0204B13
:100CF0009A4227D01F4B9A4228D01F4B9A4225D0A8
:100D00001E4B9A4226D01E4B9A4221D01D4B9A422E
:100D10000CBF4D2268229BE79209494630462CF0D1
:100D20003F04E2F791FEDAF8C432B4EB830FC7D385
:100D300030461549BDE8F047E2F7FABA542287E792
:100D40004C2285E7532283E7442281E741227FE753
:100D500042227DE746227BE7B4620A08F0620A0875
:100D6000F8620A0860890B0834800B08D0940B08DD
:100D700060930B08147D0B08C87C0B083C850B089E
:100D800094850B08008B0B08D0620A08D835012027
:100D9000D4620A0830960B080346054A106A1A689E
:100DA00041688A4202D3521A1A6070470068F7E716
:100DB000D8350120014441F20553884204D398B24A
:100DC000012838BF0120704703EB431310F8012BB3
:100DD0005340F2E7034B044A1A620022C3F814227C
:100DE000704700BFD8350120CC180C082DE9F0471A
:100DF00081468846FFF7DEFF214B07461D6A0DB985
:100E0000284639E0EB682C7E013BFCB95E1C05F1FD
:100E10001C0AA6421ED82D68F1E7D018296944089B
:100E200020F00100085AC01B002811DC08D102394B
:100E3000002CEBD031F81420BA42E7D1013CF7E79F
:100E40002246991A0129E8D81446DFE70022F8E77C
:100E50002346F6E72B6933F81430BB420ED16B6999
:100E60001B5D43450AD1424649465AF824006EF0BC
:100E70002DFC18B968682044BDE8F0870134C8E744
:100E8000D83501202DE9F84381460E46FFF7AEFF25
:100E90000246002840F08D80FF2E03D9464947487E
:100EA0000AF0E0FF464C751CD4F8140290B1D4E966
:100EB00086132B448B4229D92944FFF7E7F90746CB
:100EC000D8B90246D4F81C12D4F81402FFF7DEF9A0
:100ED000C4F81472802D2F4638BF80273846FFF79C
:100EE000BAF9C4F81402D0BB2846FFF7B4F9C4F825
:100EF000140298BB28460BF0C1FDD4F818322B44DD
:100F0000C4F81832D4F81432002BE3D0D4F81C32D1
:100F10003146D4F8147248461D441F44C4F81C528C
:100F2000FFF748FF49464FF00009804632463846F1
:100F30006EF070FB07F80690236AD3E90253AB42C8
:100F400027D36D000A2D38BF0A25C5EBC5001C301C
:100F5000FFF781F948B9C4F81402CBE72F46002304
:100F6000C4F81872C4F81C32D0E700F11C03226ADE
:100F700003EB85030260036103EB450343615368A0
:100F8000D268C0F80C90134480F81890C0E901357D
:100F90002062236AD3E903215B6921F812809E5401
:100FA000236A03EB82015868CF610244D96801319A
:100FB000D9601046BDE8F883FB620A0890830B08ED
:100FC000D835012010B504466EF0A2FB014620463C
:100FD000BDE81040FFF756BF07B5019001A8FFF725
:100FE000DBFE019A036933F8120003B05DF804FBDD
:100FF00007B5019001A8FFF7CFFE019B4269D05CC5
:1010000003B05DF804FB07B5019001A8FFF7C4FE2B
:10101000019B00EB8300C06903B05DF804FB13B5CE
:10102000019001A80C46FFF7B7FE019B426900EB57
:101030008300D25CC069226002B010BD2DE9F84384
:101040001D46002307468846036016460B60136062
:101050002B60154BDFF854901C6A0CB14C4505D140
:101060002B68326813442B60BDE8F8833B6801337A
:101070003B60E268D8F8003013446269C8F8003079
:10108000E368D1188A4207D32046FFF7ADFC2B68EE
:10109000246818442860E0E7336812F8010B013334
:1010A00003443360EEE700BFD8350120CC180C08AC
:1010B0002DE9F8430D4B0E4F1C6ADFF83880DFF83E
:1010C00038900CB1BC4201D1BDE8F88304F11C0595
:1010D000E36805EB8306B54201D32468F1E755F8D0
:1010E000042B41464846E2F7AFFCF4E7D83501202F
:1010F000CC180C0800630A08AC670B0830B5002355
:10110000202411F8012F0AB9027030BD120600F137
:1011100001051ED50BB1047028460B78114A03F067
:101120007F0363B9013A12F8013F0546013013F01D
:10113000800F0BD003F07F032B700123E1E712F93E
:10114000015B002DFBDA013BDBB2EAE700F8013C72
:10115000E9E7012B04BF047028460B7800F8013B37
:101160000223CEE707630A0838B5446805460368DA
:101170002144994210D9037B1BB1002107480AF092
:1011800071FE01F11004806824F007040834214640
:10119000FFF771F82C60A86038BD00BF90830B0882
:1011A00070B504460E4611461546FFF7DDFF314681
:1011B0002A46D4E9013018446EF05AFA62682A448B
:1011C000626070BD70B546680446B14228BF3146C2
:1011D0000D460121FFF7C8FFA368681C721B59194F
:1011E00018446EF045FA6368A068013328446360D0
:1011F00070BD012938B538BF0121044600250846D5
:1012000021606560FFF71CF82573A06038BD38B514
:1012100005460C460131FFF7ECFF6C6038BD00233A
:101220000160C0E9013201230373704738B51446E9
:101230000546FFF7DEFF024B2560636038BD00BF47
:10124000A1110208037B10B5044613B98068FFF7AB
:101250001FF80023A36010BD13B501901020FEF706
:10126000EFFF04460199FFF7C4FF204602B010BD0E
:1012700010B5044648B1037B13B98068FFF708F83E
:101280002046BDE81040FFF703B810BD38B5037B1A
:1012900004460D461BB1002106480AF0E3FD016833
:1012A00080682944FEF7E7FF2368A0601D441844C6
:1012B000256038BD90830B0838B504460D46FFF70E
:1012C00053FFD4E901301D441844656038BDD0E9AE
:1012D000002310B59A42044602D10121FFF7D6FF40
:1012E0000021D4E90132D154A06810BD10B50C46DC
:1012F0000121FFF7E1FF047010BD7F29F8B50C460E
:10130000CEB204D80121FFF7D7FF0670F8BD06F072
:101310003F06B1F5006FC1F3871546F0800607D28E
:1013200065F03F050221FFF7C7FF46700570EDE746
:1013300005F03F05B1F5803FC1F3073745F0800563
:1013400008D267F01F070321FFF7B6FF457007704B
:101350008670DBE7A40C07F03F07042164F00F045C
:1013600067F07F07FFF7A8FF857004704770C670AD
:10137000CCE713B50446084601916EF0C9F901990E
:101380000246204602B0BDE81040FFF709BF10B585
:101390001446FFF717FF047010BD10B51446FFF791
:1013A00011FF047010BD43688B422CBF591A0021F5
:1013B0004160704738B504461546084662688A425F
:1013C00003D929448A4201D8606038BDA368521A03
:1013D000184419446EF04CF96268521B6260F4E7DD
:1013E00090F9001002460378002901DB1846704787
:1013F00003F07F004023184206D112F8013F03F0AA
:10140000C001802904D0704720EA03005B08F2E79E
:1014100003F03F0343EA8010EFE7431C1846013313
:10142000027802F0C002802AF8D0704703460020FC
:10143000994200D8704711F8012D02F0C002802AAD
:1014400018BF0130F4E701440346002099421A46D0
:1014500000D870471278013302F0C002802A18BF0A
:101460000130F3E77F289DBF024B185CC0F34000BA
:1014700000207047D6670B087F289DBF024B185C81
:10148000C0F3C00000207047D6670B087F289DBFBF
:10149000024B185CC0F3800000207047D6670B0831
:1014A0007F289DBF024B185CC0F38010002070475E
:1014B000D6670B087F2809D8064B1B5C13F00C0F6E
:1014C00006D1A0F15F035842584170470020704791
:1014D00001207047D6670B087F289DBF024B185C20
:1014E000C0F3001000207047D6670B087F289DBF0F
:1014F000024B185CC0F3401000207047D6670B0801
:1015000008B50246FFF7E8FF00B12032104608BDDB
:1015100008B50246FFF7EAFF00B1203A104608BDC1
:101520003038092884BF20F0200007387047014474
:101530000246002010B5E524914203D8B0FA80F0AD
:10154000400917E012F8013B30B103F0C003802BD3
:1015500011D1431ED8B2EFE7BF2B09D9F72B09D819
:10156000DB0803F0060344FA03F303F00300E3E7A8
:101570001B06E1D510BD0020FCE7023981420B4675
:1015800003D20233181A401070471A880239002A11
:10159000F4D0F6E7B2EB131F70B54FEA131416D967
:1015A000121B03F00F0301EB440115460E46012DFB
:1015B00031F8024B18BF3468013D24FA03F4A4B299
:1015C00020F8024BF2D104B9013A104670BD002256
:1015D000FBE7F0B5059F0024D21B2646A74210D199
:1015E00000EB470C002401EB4701A24214D10CEBA5
:1015F00042031EB1012102332CF81210181A4010B8
:10160000F0BD31F8145033F814C06544354420F867
:1016100014502E0C0134E1E731F8145035442CF805
:1016200014502E0C0134E0E7F0B4049F0025D21BC7
:101630002C46AF420BD100EB4706002301EB4705D8
:101640009A420FD106EB4201F0BCFFF796BF31F88A
:101650001560344433F81560A41B20F81540241499
:101660000135E6E735F813100C4426F8134024142E
:101670000133E5E72DE9F043079C0239DDF828E066
:10168000154684464FF6FF78A4EB0209DDE908769B
:1016900055B900EB42011FB10123023120F812308D
:1016A000BDE8F043FFF769BF31F8024F013D444404
:1016B000264405EB0904AC4296BF33F8024B4FF6C3
:1016C000FF744444744486EA040E360C17FA8EF70D
:1016D0004FEA144E2CF8027B3F0CD9E7022938B5AB
:1016E00038BF0221044680680D4618B12368B1EB6B
:1016F000930F07D96900FEF7BEFD2368A06065F36C
:101700009F03236038BD38B504460C20FEF798FDD2
:10171000054623682278C3F39D0023F0030302F0FB
:101720000102400013432B6063686B60FEF788FD85
:10173000A8602268A168C2F39D0252006DF06AFFA2
:10174000284638BD00EB410002EB410210B509B953
:10175000084610BD30F8023D32F8024D1B1B002B2D
:1017600002DB04D10139F2E74FF0FF30F1E701204D
:10177000EFE710B5044638B18068FEF789FD2046D2
:10178000BDE81040FEF784BD10BD38B50C460221FF
:101790000546FFF7A3FF002C2B78B5BF01220022DE
:1017A0006142214662F3000301222B70AB68023BC9
:1017B00023F8021F090C104602F10102F8D16860FB
:1017C00038BD0023C0E900338360704728B1037837
:1017D0009B0702D48068FEF75BBD704738B50546AD
:1017E0000C464968FFF77AFF22782B78A86862F3E5
:1017F00000032B706368A1686B606268BDE83840C5
:1018000052006DF007BF0A4629B90178426062F3C1
:10181000000101707047FFF7B8BF08B5FFF7D1FFAF
:10182000BDE80840FFF7EFBF920042F002020260FD
:10183000002210B4C0E901215DF8044B1946FFF7FE
:10184000E2BF2DE9F843914698469DF820700421A7
:1018500006464C464546FFF741FF3FB1002C78F164
:1018600000030EDAD9F1000468EB4805337867F31A
:10187000000333700023736054EA050303D1BDE80D
:10188000F8830027F2E7D6E90132591C716022F88B
:101890001340230C2A0C43EA054315461C46EBE78C
:1018A0002DE9F3418DED010A0746019C0378E20F13
:1018B00062F300030370C4F30F4313F4FF4308D132
:1018C0003B786FF300033B7000237B6002B0BDE800
:1018D000F081B3F5FF4FF3D0C4F3C753A3F17F05F5
:1018E000002DEDDB05D1012102B0BDE8F041FFF78D
:1018F0004CBFB3F16F08C4F3160448BFA3F16008EE
:10190000162D44F400044FEA281821DCC5F1170510
:10191000EC4000252E4641463846FFF7DFFEC7F86B
:10192000048026B172000021B8686DF0B9FE45B19F
:1019300004FA05F2C5F11005BB68EC4023F8162047
:101940000136B045C2D0BB6823F81640240CF7E737
:10195000B3F1960605F1090548BFA3F1870605F026
:101960000F053611D7E72DE9F8438F18C2F35B0254
:1019700004460D46511C9846089EFFF7AFFE23789B
:1019800029461FFA86FC68F3000323700023636076
:10199000B942084602D3401BBDE8F8830278013102
:1019A000A2F13003092B05D9A2F14103192B14D858
:1019B000A2F13703B342EED2D4E901E0F04681460A
:1019C000B8F1000F10D100EB4E0213B1023220F833
:1019D0001E30121A52106260DAE7A2F16103192B6D
:1019E000D9D8A2F15703E5E7B9F8002008F1FF388C
:1019F00002FB0C3329F8023B1B0CE1E7F8B5044667
:101A000015461E46C1B1531E4FF0FF371E44E90074
:101A100020460F310909FFF761FE237800216FF39B
:101A20000003616023704DB9D4E9011000EB41015E
:101A3000FFF7A3FD6060F8BD0127E8E700230F2949
:101A40000ADC3278013D3E4402FA01F201F108015C
:101A500043EA02039BB2F2D162681039501C606005
:101A6000A06820F81230DEE738B50B780446057818
:101A700003F0010305F00100181A0CD163684A68ED
:101A8000934209D30BD88A681946A068FFF75AFE1B
:101A9000EB0748BF404238BD4FF0FF30F8E7012068
:101AA000F6E7884210B5044601D0FFF797FE237889
:101AB0006FF30003237010BD884210B5044601D0B7
:101AC000FFF78CFE63683BB12378C3F30002C2F1D9
:101AD000010262F30003237010BD88421FB5044663
:101AE00001D0FFF77BFE626862B901212046FFF753
:101AF000F5FD0123A26813806360237843F001039E
:101B0000237010E02378D9070FD56FF30003A16885
:101B1000237001230846ADF80E3000930DF10E033B
:101B2000FFF782FD606004B010BD511C2046FFF736
:101B3000D5FD0123D4E90121ADF80E30009308460C
:101B40000DF10E03FFF745FD6060D6E72DE9F84380
:101B50004B6805460E46144603B12AB9314628465D
:101B6000BDE8F843FFF73ABE02F10F014FEA111842
:101B700003EB1111FFF7B2FD14F00F04AB6808BFBF
:101B80001024D6E90102C4F1100408EB000702EBAF
:101B9000400E002207F10041013903EB41030146E9
:101BA000994601BB6FF0010C22FA04F408F1FF32F0
:101BB0000CFB00FC520003EB0C0023F80C40C8F1B6
:101BC000010300EB430318466DF06AFD831E17B155
:101BD00033F8172092B12B786F60327862F30003EC
:101BE0002B70BDE8F8833EF802CD01394CEA0202C1
:101BF00022FA04FC120429F802C9D2E7013FE6E701
:101C0000F0B50E46496885B00546144601B12AB9BB
:101C100031462846FFF7E2FD05B0F0BDFFF75EFD57
:101C20002346A868D6E90121FFF7B4FC2B78686049
:101C3000327862F300032B70DB07EDD50023220915
:101C40007168ADF80E30994201D093420FD19142A4
:101C5000E2D9B36804F00F0433F81220012303FA29
:101C600004F4013C224213D0ADF80E3008E0B7680E
:101C700037F8137057B101239142ADF80E30E8D810
:101C8000A968012348B90B806B60C5E70133DAE727
:101C9000BDF80E30002BBFD0F2E702460093084695
:101CA0000DF10E03FFF795FC6860B5E773B5536857
:101CB0000C46496806461546994206D308D89268EC
:101CC000A068FFF73FFD002802DA23462C461D4698
:101CD00023782A7861685340DB071BD401313046F2
:101CE000FFF7FCFC6B68B0680093AB68D4E9012196
:101CF000FFF76FFC706023787268C3F30003002A5B
:101D00000CBF002303F00103327863F3000232704A
:101D100002B070BD3046FFF7E1FC6B68B06800931D
:101D2000AB68D4E90121FFF77FFCE3E7F7B553681F
:101D30000C46496805461646994206D324D892684F
:101D4000A068FFF7FFFC00281EDA2346012734466F
:101D50001E462378327861685340DB0716D501317F
:101D60002846FFF7BBFC7368A8680093B368D4E902
:101D70000121FFF72EFC68606A682B7892B962F344
:101D800000032B7003B0F0BD0027E2E72846FFF701
:101D9000A5FC7368A8680093B368D4E90121FFF734
:101DA00043FCE8E7227802F00102002FE7D0C2F1FD
:101DB0000102E4E72DE9F04F15464A680E4685B06A
:101DC0006B6804469A423EBF0B462E461D4633784A
:101DD0007168DB0721D42B7813F001071DD1FFF7C1
:101DE0007DFCA068B6683B46D5E9011C99420BD141
:101DF00000EB4101FFF7C1FB237860606FF3000344
:101E0000237005B0BDE8F08F36F813203CF813506E
:101E10002A4020F813200133E8E701312046FFF77C
:101E20005DFC96F800A02B780AF00108D6F804C0F3
:101E30008AEA03074AF3000AA06803F00109FF4396
:101E400043F30003834607F0010E47F300079BB2FC
:101E5000BFB2009302971FFA8AF7D5E901120197E2
:101E6000B768A1EB0C01A7F1020A67460391BFB95D
:101E700000EB4C01BEF1000F03D00123023120F82A
:101E80001C30FFF77AFB606033782A78C3F30003D5
:101E9000C2F300021340227863F300022270B0E71D
:101EA0003AF8021F013F019B5940039B8844D9190E
:101EB000B9429BBF32F8021B009B00995940029B1C
:101EC000894408EA09014FEA19494FEA184859407C
:101ED0001EFA81F14FEA114E2BF8021BC7E72DE9DC
:101EE000F84F16464A680D46044673689A423EBF4C
:101EF0000B4635461E462B786968DB0731D43278AD
:101F000012F001072DD1FFF7E9FBA9686D683A4689
:101F1000D4F808C0D6E9013EED1A934212D101EB84
:101F2000430100220CEB4303954214D103EB45031C
:101F3000A3EB0C035B10636023786FF30003237043
:101F4000BDE8F88F31F812003EF8126030432CF8EB
:101F500012000132E1E731F8120023F812000132D9
:101F6000E2E701312046FFF7B9FB2F783378696843
:101F700007F00108AD6803F00109A06843F300030E
:101F8000A5F1020C01259BB28246D6E901E247F396
:101F900000060F46AEEB010EB6B247B900EB4101A9
:101FA000FFF7EBFA2378606043F00103C7E73CF8E2
:101FB00002BF013F8BEA060BD8440EEB070BBB4573
:101FC00096BF32F802BB9B468BEA030BD94448EA22
:101FD000090B4FEA19494FEA18486FEA0B0B15FA3B
:101FE0008BF52AF8025B2D0CD7E7F0B516464A6848
:101FF0000C4685B0736805469A423EBF0B46344690
:102000001E462778616833785F4017F001073AD1A0
:10201000FFF764FB237813F0010328D16168A868F7
:10202000A768D6E9012C891A9A4211D107EB420719
:10203000002300EB4202994213D102EB4101FFF76A
:102040009CFA2B7868606FF300032B7005B0F0BD2D
:1020500037F813403CF81360744020F81340013304
:10206000E2E737F8134022F813400133E3E7CDE904
